:020000040800F2
:10000000A08900209D010008252E00085127000826
:10001000212E0008C90400087936000800000000FD
:10002000000000000000000000000000A12E0008F9
:10003000CD04000800000000612E0008A32E000877
:10004000B7010008B7010008B7010008B7010008B0
:10005000B7010008B7010008B7010008B7010008A0
:10006000B7010008B7010008B7010008B701000890
:10007000B7010008B7010008B7010008B701000880
:10008000B7010008B7010008B7010008B701000870
:10009000B7010008B7010008B7010008B701000860
:1000A000B701000811300008B7010008B7010008C7
:1000B000B7010008B7010008B7010008B701000840
:1000C000B7010008B7010008B7010008B701000830
:1000D000B70100085936000869360008B701000862
:1000E000B7010008B7010008B7010008B701000810
:1000F000B7010008B7010008B7010008B701000800
:10010000B7010008B7010008B7010008B7010008EF
:1001100089310008B7010008B7010008B7010008DD
:10012000B7010008B7010008B7010008B7010008CF
:10013000B70100085D050008B7010008B701000815
:10014000B7010008B7010008B7010008B7010008AF
:10015000B7010008B7010008B7010008B70100089F
:10016000B7010008B7010008B7010008B70100088F
:10017000B7010008B7010008B7010008000000003F
:10018000B7010008B7010008DFF80CD000F0B0F8A4
:100190000048004795670008A0890020064880476E
:1001A00006480047FEE7FEE7FEE7FEE7FEE7FEE75C
:1001B000FEE7FEE7FEE7FEE7AD2F00088901000835
:1001C0002DE9F05F0546002092469B46884606468C
:1001D000814640241BE0284641464746224600F01F
:1001E00076F853465A46C01A914110D31146184624
:1001F000224600F05DF82D1A67EB01084F462246B3
:100200000120002100F054F817EB00094E41201E98
:10021000A4F10104DFDC484631462A464346BDE8E6
:10022000F09F40EA01039B0703D009E008C9121FB1
:1002300008C0042AFAD203E011F8013B00F8013BA0
:10024000521EF9D27047D2B201E000F8012B491ECC
:10025000FBD270470022F6E710B513460A46044663
:100260001946FFF7F0FF204610BD30B504460020C8
:10027000034600E05B1C934203D2E05CCD5C401B74
:10028000F8D030BD30B50B460146002020220124B5
:1002900009E021FA02F59D4205D303FA02F5491B54
:1002A00004FA02F52844151EA2F10102F1DC30BD6A
:1002B000202A04DB203A00FA02F100207047914026
:1002C000C2F1200320FA03F3194390407047202A1B
:1002D00004DB203A21FA02F00021704721FA02F3F0
:1002E000D040C2F1200291400843194670470000F7
:1002F000064C074D06E0E06840F0010394E8070073
:1003000098471034AC42F6D3FFF742FF24C90008E7
:1003100044C9000870B58C1810F8015B15F007038C
:1003200001D110F8013B2A1106D110F8012B03E08E
:1003300010F8016B01F8016B5B1EF9D12B0705D496
:100340000023521E0DD401F8013BFAE710F8013BDF
:10035000CB1A921C03E013F8015B01F8015B521EFB
:10036000F9D5A142D8D3002070BD000054494A6895
:1003700022F440324A604A6843681A434A6002687D
:10038000526822F4807203685A60026853680269F6
:1003900043EA022203685A600268526822F04072FF
:1003A00003685A600268526883681A4303685A6097
:1003B0000268926822F4006203689A600268926898
:1003C000C3681A4303689A603E4B826A9A4218D007
:1003D0000268926822F0706203689A60026892680C
:1003E000836A1A4303689A600268926822F0405256
:1003F00003689A6002689268C36A1A4303689A6045
:100400000BE00268926822F0706203689A600268EA
:10041000926822F0405203689A600268926822F063
:10042000020203689A6002689368826943EA4202A2
:1004300003689A60026AA2B10268526842F40062DC
:1004400003685A600268526822F4604203685A6086
:1004500002685368426A521E43EA423203685A6095
:1004600005E00268526822F4006203685A6002687C
:10047000D26A22F470020368DA620268D36A828B5D
:10048000521E43EA02520368DA620268926822F45A
:10049000007203689A6002689368026B43EA422222
:1004A00003689A600268926822F4806203689A6026
:1004B00002689368426943EA822203689A6070473F
:1004C000002301400100000F00BFFEE770470168F4
:1004D00001F58051896941F00202016801F58051FE
:1004E0008A617047016801F58051896941F40052C1
:1004F000016801F580518A617047000008B508491C
:100500000968C9084FF47A72B1FBF2F141430091D6
:1005100000BF00BF00994A1E00920029F9D108BD12
:10052000D41C002038B5044600200090206800F557
:100530008050806940F48011206800F5805081610E
:10054000206800F58050806900900120FFF7D6FFF9
:100550000099206800F58050816138BD10B50248CF
:1005600000F03DFB10BD0000B44F002030B5034645
:100570001479557944EA0520084C0C442064D47859
:100580002406957844EA0544557844EA052415780C
:1005900044EA0500014C0C44606430BD0080024018
:1005A00070B5AEB004460E46002526B14FF400618A
:1005B000E160C900A1600020119012901390149086
:1005C00015901690E06918B94FF48060179001E01B
:1005D000002017904FF400701890002019901A9086
:1005E0001B901C901D9040201E9000201F9020907A
:1005F000219022902390249025902690802027906F
:100600000020289029902A902B902C902D902068E3
:10061000056871480540DDE9110108431399084355
:1006200014990843A168084315990843169908438B
:10063000E168084317990843189908431999084332
:100640001A9908431B9908430543206805602068F0
:100650000568012000F026FA20680560DDE91C012C
:1006600008431E9908431F9908432099084321997C
:100670000843229908432399084321684860206869
:100680004568012000F00EFA206845602498216832
:10069000886025982168C860206885694FF6417098
:1006A0000540DDE9261040EA0140289908432999D0
:1006B00008432A9908432B9908430543206885611C
:1006C00020688569012000F0EDF920688561DDE989
:1006D0002C0108432168C8612068C569012000F029
:1006E000E1F92068C561002001904FF00070029090
:1006F000002003904FF40010049000200590069015
:100700000790089004200990C0050A9040120B90B1
:1007100080010C9040120D9080200E9000200F90D0
:100720001090206800F5805085692C480540DDE96F
:1007300001010843039908430499084305990843B4
:1007400006990843079908430899084309990843FB
:100750000543206800F580508561206800F58050D1
:100760008569012000F09EF9206800F580508561C0
:10077000DDE90A0108430C9908430D9908430E99D5
:1007800008430F9940EA81001099084340F40001A2
:10079000206800F580500160206800F580500568F1
:1007A000012000F07FF9206800F580500560A06905
:1007B000012809D1206800F58050C0690849084324
:1007C000216801F58051C861002120466269FFF768
:1007D000CDFE2EB070BD00000F8120FF233FDEF85C
:1007E0004000010038B504460020009020680068F1
:1007F00040F0040021680860206800680090012033
:10080000FFF77CFE00982168086038BD38B50446C3
:10081000002000902068006840F00800216808600F
:100820002068006800900120FFF768FE00982168AA
:10083000086038BD38B502460020009000BF92F82D
:100840003C00012801D1022038BD012082F83C0083
:1008500000BF0868092816D91068C0680C780A3CDF
:1008600004EB44050724AC40A0431468E0600C7816
:100870000A3C04EB44048868A0401468E468204300
:100880001468E06013E0106800690C7804EB44051C
:100890000724AC40A043146820610C7804EB4404A6
:1008A0008868A0401468246920431468206148685F
:1008B000072817D21068406B0C79641E04EB84057E
:1008C0001F24AC40A04314686063088880B20C7990
:1008D000641E04EB8404A0401468646B2043146815
:1008E000606331E048680D2817D21068006B0C79FE
:1008F000E41F04EB84051F24AC40A043146820636C
:10090000088880B20C79E41F04EB8404A0401468CA
:10091000246B20431468206316E01068C06A0C79C9
:100920000D3C04EB84051F24AC40A0431468E06236
:10093000088880B20C790D3C04EB8404A040146854
:10094000E46A20431468E062194B1A4C1068A04214
:1009500006D10868122803D1586840F48000586016
:10096000144C1068A0421CD10868102802D00868F6
:10097000112816D1586840F4000058600868102803
:100980000FD10D4800680D4CB0FBF4F000EB800077
:100990004000009002E00098401E0090009800285F
:1009A000F9D100BF002082F83C0000BF00BF4BE738
:1009B0000023014000200140D41C002040420F00D1
:1009C00070B5044600250CB9012070BD1549A06A18
:1009D000884200D000BF206C30B90020606484F8E9
:1009E0003C00204600F020F8206C00F0100088B990
:1009F000206C20F4885040F0020020642046FFF76D
:100A0000B5FC00206064206C20F0020040F0010082
:100A1000206400E0012500BF002084F83C0000BFF6
:100A20002846D2E70100000F10B586B004461049F1
:100A30002068884219D100BF002000900D4800684E
:100A400040F480700B4908600846006800F480702C
:100A5000009000BF00BF08200190032002900020FA
:100A6000039001A9044800F045FC06B010BD000049
:100A7000002001404438024000080240014691F83D
:100A80003500022803D080204865012070470520EA
:100A900081F835000868006820F001000A681060DD
:100AA0000020F3E770B5044600F02AFD064625460F
:100AB000681C10B104480078054400BF00F020FD18
:100AC000801BA842FAD370BDE01C002070B504461C
:100AD0000D461646002200BF94F84500012801D1BA
:100AE000022070BD012084F8450000BF022084F878
:100AF0004400A56200221FE005EB42114FF00040C8
:100B0000086044F2F4504860C2EBC21000EB4000B1
:100B100006EB80008860A069012803D1486820F0B6
:100B200000404860581E904204D905EB4210203026
:100B3000C86000E0CD60521C9A42DDD3206800F509
:100B40008050C560012084F8440000BF002084F874
:100B5000450000BF00BFC4E770B504460D46164609
:100B6000002200BF94F84500012801D1022070BD89
:100B7000012084F8450000BF022084F84400E562AB
:100B800000221BE005EB42114FF480100860C2EB1D
:100B9000C21000EB400006EB80008860E06918B9E5
:100BA000086840F440000860581E904204D905EBE4
:100BB00042102030C86000E0CD60521C9A42E1D360
:100BC000206800F580500561012084F8440000BFD2
:100BD000002084F8450000BF00BFC8E7704710B58B
:100BE0000446206800F58050406900F0400040282D
:100BF0000FD1204600F06BFA4021206800F58050AC
:100C00004161012084F8440000BF002084F84500C1
:100C100016E0206800F58050406900F0010078B1CE
:100C2000204600F01DFB0121206800F58050416145
:100C3000012084F8440000BF002084F8450000BF74
:100C40004FF48031206800F580504161206800F544
:100C50008050406900F40040B0F5004F10D12046AC
:100C6000FFF7BCFF4FF40041206800F58050416160
:100C7000012084F8440000BF002084F8450000BF34
:100C800010BD00002DE9FC41044600250020019024
:100C90009D4E0027804614B90120BDE8FC8194F8E0
:100CA000440028B9002084F84500204600F03AF9B5
:100CB00000BF002000909548006840F480409349B0
:100CC00008600846006800F48040009000BF00BF44
:100CD0008F48006820F400008D49086008460068CD
:100CE000216A08438A490860206800F5805000683E
:100CF00040F00101206800F58050016000F000FC28
:100D000007460FE000F0FCFBC01BB0F5FA7F09D9E5
:100D1000032084F8440000BF002084F8450000BF91
:100D20000320BAE7206800F58050006800F0010059
:100D30000028E7D12068056925F01C0500F050FE69
:100D400006467448864205D37348864202D245F06F
:100D500008051AE07048864205D36B48864202D2E5
:100D600045F00C0511E06848864203D36B48864283
:100D700000D20AE06948864205D36948864202D219
:100D800045F0040501E045F01005206805614FF4C9
:100D900000420021204600F064FA48B14FF00108FB
:100DA00041462046FFF7FCFB012084F8440074E72D
:100DB000FF20FFF777FE6068002871D000F0A0FBED
:100DC000074600BF01AA0121204600F037F900F0D4
:100DD00097FBC01B41F2883188420FD94FF00108C0
:100DE00041462046FFF7DCFB012084F8440000BFA9
:100DF000002084F8450000BF03204EE7019800F072
:100E000004000428DED182020021204600F029FAE5
:100E100048B14FF0010841462046FFF7C1FB0120D1
:100E200084F8440039E700F06BFB074600BF01AAD5
:100E30000121204600F002F900F062FBC01B41F2E4
:100E4000883188420FD94FF0010841462046FFF70C
:100E5000A7FB012084F8440000BF002084F845006F
:100E600000BF032019E7019800F020002028DED100
:100E700001AA3121204600F0E1F848B14FF0010805
:100E800041462046FFF78CFB012084F8440004E72C
:100E9000019800F0100020B14FF40061E16002E021
:100EA0000DE00021E160019800F00400042802D167
:100EB0000021A1601EE04FF48041A1601AE0E068CB
:100EC000C0F3CF00A168C1F34F0140EA0102002145
:100ED000204600F0C6F948B14FF0010841462046CF
:100EE000FFF75EFB012084F84400D6E640F6FF7071
:100EF000FFF7D8FD41462046FFF752FB012084F85A
:100F000044000020C9E600000087930344380240F3
:100F100004380140002D3101C00E160200E1F50534
:100F200080D1F00810B586B004463F492068884259
:100F300077D100BF00BF002000903C48006840F01F
:100F400000703A4908600846006800F000700090A0
:100F500000BF00BF00BF002000900846006840F0BE
:100F6000806008600846006800F08060009000BF64
:100F700000BF00BF002000900846006840F00060FD
:100F800008600846006800F00060009000BF00BFE5
:100F900000BF322001900220029000200390032025
:100FA00004900B20059001A9214800F0A3F98620A8
:100FB00001900220029000200390032004900B2057
:100FC000059001A91B4800F095F94FF4605001907D
:100FD0000220029000200390032004900B20059033
:100FE00001A9154800F086F9002211463D2000F0C5
:100FF00015FB3D2000F005FB012211460D4800F0D5
:1010000079FA6420FFF74EFD00220121094800F023
:1010100071FA3220FFF746FD01221146054800F023
:1010200069FA06B010BD000000800240303802406E
:101030000008024000000240000402402DE9F04197
:1010400004460E4617460025A84694F84400822818
:1010500002D10220BDE8F081822084F8440020689B
:10106000056905F01C05208A4FF4784101EAC0208B
:101070000543481100EA8610054325F0020545F0B6
:1010800001052068056100F03BFA804612E000F09F
:1010900037FAA0EB0800B0F5803F09D3012084F8AF
:1010A000440000BF002084F8450000BF0320D1E7C2
:1010B0002068056905F001000028E8D12068406932
:1010C00080B23860012084F844000020C2E77047F5
:1010D00010B5044600BF94F84500012801D1022054
:1010E00010BD012084F8450000BF022084F84400B0
:1010F0002046FFF78BFB2046FFF774FB2046FFF7E7
:1011000011FA2046FFF7EEF92046FFF7E0F901203B
:1011100084F8440000BF002084F8450000BF00BFF1
:10112000DEE770B5024600230025002400BF92F8D8
:101130004500012801D1022070BD012082F8450040
:1011400000BF022082F8440049B9012082F844001F
:1011500000BF002082F8450000BF0120ECE7D06A04
:10116000006800F0004048B1122082F8440000BF3F
:10117000002082F8450000BF0120DDE740F2F45076
:10118000814208D9B1FBF0F3B1FBF0F600FB161079
:1011900010B15B1C00E00123012B13D1D06A006861
:1011A00040F04050D66A3060C1F30C00D66A7060DF
:1011B000D06A006840F00040D66A3060D06AC068EB
:1011C000D06232E000242EE0D06A006820F0405067
:1011D000D66A30602CB9D06A006840F08050D66A78
:1011E000306040F2F450D66A7060581EA04210D1B0
:1011F000D06A006840F00050D66A3060581EC0EBDC
:10120000C01000EB4000A1EB8005C5F30C00D66ACE
:101210007060D06A006840F00040D66A3060D06AE2
:10122000C068D062641C9C42CED3106800F5805028
:10123000406900F0040048B10426106800F58050B1
:1012400046610026106800F580504660012082F853
:10125000440000BF002082F8450000BF00BF6BE7DC
:1012600070472DE9F04104460E4617460025A84672
:1012700094F84400422802D10220BDE8F0814220C7
:1012800084F844002068056905F01C05208A4FF4A5
:10129000784101EAC0200543481100EA8610054361
:1012A00045F0020545F00105B8B2216848612068A3
:1012B000056100F025F9804612E000F021F9A0EB6D
:1012C0000800B0F5803F09D3012084F8440000BF36
:1012D000002084F8450000BF0320CEE720680569A0
:1012E00005F001000028E8D1012084F84400002026
:1012F000C3E70000F8B502460B4600250024002095
:101300000021DCE0012606FA01F51E6806EA050464
:10131000AC4273D15E68022E02D05E68122E13D1E9
:10132000CF0802F1200656F827004E07F70E0F26C9
:10133000BE40B0434F07FF0E1E69BE403043CF088A
:1013400002F1200646F8270010684F000326BE4031
:10135000B0431E7906F003064F00BE4030431060D4
:101360005E68012E08D05E68022E05D05E68112EE0
:1013700002D05E68122E13D190684F000326BE4043
:10138000B0434F00DE68BE40304390605068012695
:101390008E40B0431E79C6F300168E403043506035
:1013A000D0684F000326BE40B0434F009E68BE4049
:1013B0003043D0605E6806F08056B6F1805F7DD124
:1013C00000BF00260096404E366846F480463E4FE9
:1013D0003E603E46366806F48046009600BF00BF79
:1013E0003A4E8F0856F827008E07370F0F26BE405B
:1013F000B043374EB24202D1002624E05EE0354EC3
:10140000B24201D101261EE0334EB24201D1022682
:1014100019E0324EB24201D1032614E0304EB242FE
:1014200001D104260FE02F4EB24201D105260AE079
:101430002D4EB24201D1062605E02C4EB24201D11A
:10144000072600E008268F073F0FBE4030431F4E9F
:101450008F0846F82700264E3068A0435E6806F4E1
:101460008036B6F5803F00D12043214E3060361DD6
:101470003068A0435E6806F40036B6F5003F00D140
:1014800020431B4E361D3060361D3068A0435E6819
:1014900006F48016B6F5801F00D12043144E08369E
:1014A0003060361D3068A0435E6806F40016B6F55D
:1014B000001F00D120430E4E0C363060491C10290D
:1014C000FFF420AFF8BD0000443802400838014066
:1014D000000002400004024000080240000C0240EC
:1014E000001002400014024000180240001C02409C
:1014F000003C01400AB1816101E00B048361704747
:101500000148006870470000D81C002003480068AC
:10151000034909780844014908607047D81C002035
:10152000E01C002010B50D48006840F400700B4925
:1015300008600846006840F480600860084600685B
:1015400040F480700860032000F0A6F8002000F04E
:1015500007F800F02BF8002010BD0000003C02400E
:1015600070B504460E4800784FF47A71B1FBF0F084
:101570000C490968B1FBF0F5284600F07DFD08B183
:10158000012070BD102C07D200222146501E00F011
:1015900045F80548046001E00120F2E70020F0E78B
:1015A000E01C0020D41C0020DC1C002010B503200F
:1015B00000F072F8002211466FF00B0000F02EF8D8
:1015C000002211466FF00A0000F028F800221146B0
:1015D0006FF0090000F022F800221146501F00F0C1
:1015E0001DF800221146101F00F018F800221146C5
:1015F000901E00F013F800221146501E00F00EF865
:1016000010BD00BF00F01F0201219140420992006D
:1016100002F1E022C2F8001100BF70472DE9F05F2F
:1016200080460D461646002701F0FEFB0746394668
:101630002A46334601F00700C0F1070ABAF1040F49
:1016400002D94FF0040A01E0C0F1070AD14600F1C7
:10165000040ABAF1070F02D24FF0000A01E0A0F12C
:10166000030AD4464FF0010A0AFA09FAAAF1010A5C
:101670000AEA020A0AFA0CFA4FF0010B0BFA0CFB09
:10168000ABF1010B0BEA030B4AEA0B04214640467F
:1016900001F0D2FBBDE8F09F00BF00F00702064B4F
:1016A00019684FF6FF031940044B0B4343EA02212C
:1016B000014B196000BF70470CED00E00000FA0517
:1016C000F8B5044600250026207800F0010020B976
:1016D000207800F0040004282FD100205B498866A0
:1016E000FFF70EFF054606E0FFF70AFF401B022842
:1016F00001D90320F8BD56480068C0F3C060002837
:10170000F2D160688101207A41EA00705049843149
:10171000086001204D498866FFF7F2FE054606E0A5
:10172000FFF7EEFE401B022801D90320E2E74848FC
:101730000068C0F3C0600028F2D0207800F00200FA
:1017400002287DD100BF0020009041484030006851
:1017500040F080503E49403108600846006800F083
:101760008050009000BF00BF3A48006840F480708D
:1017700038490860FFF7C4FE054606E0FFF7C0FEE3
:10178000401B022801D90320B4E73248006800F466
:1017900080700028F2D02E487030006800F4407647
:1017A0004EB3A08900F44070B04224D02848703075
:1017B000006820F440760120274908600020086076
:1017C000234870300660006800F0010098B1FFF710
:1017D00097FE054608E0FFF793FE401B41F2883173
:1017E000884201D9032085E7194870300068C0F3AA
:1017F00040000028EFD000BFA08900F44070B0F591
:10180000407F0CD112480830006820F4F810134AC9
:10181000E168114008430E490831086007E00C48B0
:101820000830006820F4F8100949083108600848B9
:1018300070300068A189C1F30B010843044900E03E
:1018400002E07031086000BF002053E7000047420B
:101850000038024000700040400E4742FFFCFF0F7E
:1018600070B504460D460CB9012070BD584800689B
:1018700000F00F00A84209D255490D7008460068D3
:1018800000F00F00A84201D00120EEE7207800F020
:10189000020002281DD1207800F00400042805D1A0
:1018A0004C48006840F4E0504A490860207800F055
:1018B0000800082805D14748006840F460404549C1
:1018C00008604448006820F0F000A16808434149DE
:1018D0000860207800F00100A8B36068012807D1F3
:1018E0003C4808380068C0F34040B8B90120BCE764
:1018F0006068022802D06068032807D1354808389C
:101900000068C0F3406048B90120AEE731480838AC
:101910000068C0F3400008B90120A6E72D48006820
:1019200020F00300616808432A490860FFF7E8FDDA
:10193000064609E0FFF7E4FD801B41F2883188424A
:1019400002D9032091E707E02248006800F00C006C
:101950006168B0EB810FEDD11D48006800F00F0009
:10196000A84209D91A490D700846006800F00F0016
:10197000A84201D0012078E7207800F00400042874
:1019800007D11448006820F4E050E1680843114989
:101990000860207800F00800082808D10D48006889
:1019A00020F46040216940EAC1000A49086000F063
:1019B0003DF808490968C1F30311074A515CC84062
:1019C000064908600020FFF7CBFD00204DE700002E
:1019D000003C024008380240B8C60008D41C002071
:1019E0000148006870470000D41C002000B5FFF7D4
:1019F000F7FF04490968C1F38221034A515CC840DA
:101A000000BD000008380240C8C6000800B5FFF756
:101A1000E7FF04490968C1F34231034A515CC840F9
:101A200000BD000008380240C8C600082DE9F04794
:101A3000002400250026A1462548006800F00C007F
:101A400020B1042805D008283AD105E0DFF88490B9
:101A500039E0DFF8849036E01D48001F006800F090
:101A60003F041B48001F006800F4800078B11A484A
:101A70001749091F0968C1F38811A0FB01700146CD
:101A8000224600233846FEF79BFB05460EE0114830
:101A90000F49091F0968C1F38811A0FB01700146B5
:101AA000224600233846FEF78BFB05460848001FF8
:101AB0000068C0F30140401C4600B5FBF6F902E0A7
:101AC000DFF8109000BF00BF4846BDE8F087000077
:101AD000083802400024F40000127A00F8B50446E9
:101AE0000CB90120F8BD207800F00100002874D066
:101AF000F948006800F00C0004280DD0F648006892
:101B000000F00C00082813D1F348001F006800F40F
:101B10008000B0F5800F0BD1EF4808380068C0F3A3
:101B20004040002859D06068002856D10120D9E7EC
:101B300000BF6068B0F5803F08D1E748083800680A
:101B400040F48030E449083908601EE06068B0F570
:101B5000A02F0DD1E0480838006840F48020DE490D
:101B6000083908600846006840F4803008600CE0DE
:101B7000D9480838006820F48030D749083908600F
:101B80000846006820F48020086000BF606890B1BB
:101B9000FFF7B6FC054606E0FFF7B2FC401B6428E1
:101BA00001D903209EE7CC4808380068C0F34040C4
:101BB0000028F1D011E0FFF7A3FC054606E0FFF78F
:101BC0009FFC401B642801D903208BE7C2480838DA
:101BD0000068C0F340400028F1D1207800F00200F6
:101BE00002285FD1BC48006800F00C0058B1BA4828
:101BF000006800F00C0008281CD1B748001F0068DE
:101C000000F48000B0B9B44808380068C0F3400060
:101C100020B1E068012801D0012063E7AE48083810
:101C2000006820F0F800216940EAC100AA4908399B
:101C3000086037E0E06800B30120A8490860FFF7BA
:101C40005FFC054606E0FFF75BFC401B022801D95C
:101C5000032047E7A04808380068C0F34000002888
:101C6000F1D09D480838006820F0F800216940EA6A
:101C7000C10099490839086014E0002097490860BC
:101C8000FFF73EFC054606E0FFF73AFC401B022842
:101C900001D9032026E7904808380068C0F34000C7
:101CA0000028F1D1207800F0080008282CD16069C4
:101CB000A8B101208A490860FFF722FC054606E02A
:101CC000FFF71EFC401B022801D903200AE78248C7
:101CD0006C300068C0F340000028F1D014E0002010
:101CE0007F490860FFF70CFC054606E0FFF708FC9B
:101CF000401B022801D90320F4E677486C300068C5
:101D0000C0F340000028F1D1207800F0040004283E
:101D100070D1002670483830006800F0805090B9CB
:101D200000BF002000906C483830006840F08050C0
:101D30006949383108600846006800F0805000901A
:101D400000BF00BF01266748006800F48070B0B98A
:101D50006448006840F4807062490860FFF7D0FB77
:101D6000054606E0FFF7CCFB401B022801D9032003
:101D7000B8E65C48006800F480700028F2D000BF2C
:101D8000A068012808D154486830006840F001007C
:101D90005149683108601DE0A06805280DD14E4802
:101DA0006830006840F004004B496831086008461C
:101DB000006840F0010008600CE0474868300068A7
:101DC00020F001004449683108600846006820F0AE
:101DD0000400086000BFA068A8B1FFF791FB0546AA
:101DE00009E0FFF78DFB401B41F28831884202D9A0
:101DF000032077E626E0384868300068C0F34000EA
:101E00000028EED013E0FFF77BFB054608E0FFF764
:101E100077FB401B41F28831884201D9032061E6FB
:101E20002D4868300068C0F340000028EFD1012E33
:101E300007D129483830006820F0805026493831D1
:101E4000086000BFA069B8B32348006800F00C0028
:101E500008285ED0A069022846D100201F490866E4
:101E6000FFF74EFB054606E0FFF74AFB401B022842
:101E700001D9032036E6184808380068C0F34060EE
:101E80000028F1D1D4E907010843616A40EA8111D1
:101E90000122A06AC2EB500041EA00412C20005D03
:101EA00041EA00600C49091F086001200B490866DF
:101EB000FFF726FB054607E02DE0FFF721FB401B5F
:101EC000022801D903200DE6034808380068C0F352
:101ED00040600028F1D01EE0083802400000474270
:101EE000800E47420070004000200C490866FFF752
:101EF00007FB054606E0FFF703FB401B022801D95C
:101F00000320EFE506480068C0F340600028F2D1E6
:101F100001E00120E6E50020E4E500000000474282
:101F20000038024010B504460CB9012010BD607F96
:101F300020B900202077204600F060F8022060776A
:101F400000BFCA202168486253202168486200BF50
:101F5000204600F086FF40B100BFFF2021684862A4
:101F600000BF042060770120E0E7206880682249F4
:101F700008402168886021696068084361690843F6
:101F8000216889680843216888602168E0680861E1
:101F900020680169208941EA0040216808612068C1
:101FA000C06820F080002168C8602068806800F068
:101FB000200060B9204600F02DF840B100BFFF209E
:101FC0002168486200BF042060770120AEE72068E6
:101FD000006C20F48020216808642068006CA169EE
:101FE00008432168086400BFFF202168486200BFE1
:101FF00001206077002099E7BFFF8FFF034A016847
:10200000914202D10121024A11607047002800402C
:102010003C0E474270B5044600252068C06820F099
:10202000A0002168C860FFF76BFA054607E0FFF7DC
:1020300067FA401BB0F57A7F01D9032070BD206894
:10204000C06800F020000028F1D00020F6E7042846
:1020500008D14FF0E021096941F004014FF0E0227E
:10206000116107E04FF0E021096921F004014FF010
:10207000E02211617047704770B504462546681E1E
:10208000B0F1807F01D301200FE0681E4FF0E02106
:1020900048610F214FF0FF3000F0CEFE00204FF0DE
:1020A000E021886107200861002070BD10B5FFF7AE
:1020B000E2FF10BD70477047024600BF92F838003B
:1020C000012801D102207047012082F8380000BFAA
:1020D000022082F839001068406820F07000136810
:1020E0005860106840680B6818431368586010689F
:1020F000806820F0800013689860106880684B68E2
:10210000184313689860012082F8390000BF00204E
:1021100082F8380000BF00BFD5E710B504460CB9FF
:10212000012010BD94F8390028B9002084F8380047
:10213000204600F00DF8022084F83900211D2068A7
:1021400000F06EFF012084F839000020E9E700006C
:1021500008B50A4A016891420FD100BF00210091E1
:102160000749096841F00101054A116011460968F3
:1021700001F00101009100BF00BF08BD0000014057
:102180004438024001460868C06840F001000A680F
:10219000D0600868006840F001000A681060002004
:1021A00070472DE9F04104460D46002600BF94F823
:1021B0003800012802D10220BDE8F081012084F816
:1021C000380000BF022084F839002068866826F0B5
:1021D000770626F47F4620688660286850283BD022
:1021E0000CDC202860D004DC002853D0102865D1F6
:1021F00055E030285DD0402860D141E0602835D0DE
:1022000070280DD0B0F5805F03D0B0F5005F55D1D8
:1022100015E02068806820F00700216888604EE0A3
:10222000D5E902136A68206800F06CFF20688668B0
:1022300026F0770646F07706206886603FE0D5E90D
:1022400002136A68206800F05DFF2068806840F42F
:1022500080402168886032E0EA686968206800F0A0
:1022600067FF5021206800F059FF28E0EA6869689C
:10227000206800F072FF6021206800F04FFF1EE030
:10228000EA686968206800F053FF4021206800F088
:1022900045FF14E00021206800F040FF0FE010210E
:1022A000206800F03BFF0AE02021206800F036FFA4
:1022B00005E03021206800F031FF00E000BF00BFE2
:1022C000012084F8390000BF002084F8380000BFE6
:1022D00000BF71E7704710B5044620680069C0F37D
:1022E0004000D8B12068C068C0F34000B0B16FF0C2
:1022F000020021680861012020762068806900F0D2
:10230000030018B12046FFF7E5FF05E0204600F086
:10231000ADF8204600F0ABF8002020762068006978
:10232000C0F38000D8B12068C068C0F38000B0B1AD
:102330006FF004002168086102202076206880691F
:1023400000F4407018B12046FFF7C4FF05E02046B6
:1023500000F08CF8204600F08AF8002020762068F3
:102360000069C0F3C000D8B12068C068C0F3C000E5
:10237000B0B16FF008002168086104202076206861
:10238000C06900F0030018B12046FFF7A3FF05E085
:10239000204600F06BF8204600F069F80020207617
:1023A00020680069C0F30010D8B12068C068C0F38D
:1023B0000010B0B16FF0100021680861082020768D
:1023C0002068C06900F4407018B12046FFF782FF12
:1023D00005E0204600F04AF8204600F048F80020CA
:1023E00020762068006900F0010058B12068C068BC
:1023F00000F0010030B16FF0010021680861204653
:1024000000F036F820680069C0F3C01058B12068A9
:10241000C068C0F3C01030B16FF08000216808615F
:102420002046FFF747FE20680069C0F3801058B1CE
:102430002068C068C0F3801030B16FF040002168A0
:102440000861204600F020F820680069C0F34010C1
:1024500058B12068C068C0F3401030B16FF0200060
:10246000216808612046FFF726FE10BD70477047BF
:1024700010B50446034920680968884201D103F079
:1024800001FE10BDE81D0020704770472DE9F047A0
:102490000446206805682068C668206847694FF0D0
:1024A0000008C14605F00F08B8F1000F0AD105F089
:1024B000200038B106F0200020B1204600F096FE42
:1024C000BDE8F087B8F1000F6DD007F0010018B932
:1024D00006F49070002866D005F0010030B106F4D3
:1024E000807018B1E06B40F00100E06305F004007B
:1024F00030B107F0010018B1E06B40F00200E0637A
:1025000005F0020030B107F0010018B1E06B40F0B7
:102510000400E06305F0080030B107F0010018B1D5
:10252000E06B40F00800E063E06B68B305F020006A
:1025300028B106F0200010B1204600F057FE2068B8
:102540004069C0F38019E06B00F0080010B9B9F1E0
:10255000000F22D0204600F029FE2068406900F0DC
:102560004000B0B12068406920F040002168486117
:10257000606B50B11748616B0865606BFEF77EFABF
:1025800010B1606B016D88470CE02046FFF77DFFBE
:1025900008E02046FFF779FF04E02046FFF775FFCB
:1025A0000020E0638CE705F0800030B106F0800089
:1025B00018B1204601F01CF882E705F0400030B168
:1025C00006F0400018B1204600F000FE78E700BF9A
:1025D00076E700009931000810B504460CB90120D7
:1025E00010BDA06900B100E000BF94F8390028B91F
:1025F000002084F83800204600F028F8242084F8D1
:1026000039002068C06820F400502168C860204666
:1026100000F03AFE2068006920F4904021680861CB
:102620002068406920F02A00216848612068C0685D
:1026300040F400502168C8600020E063202084F846
:10264000390084F83A000020CAE7000010B586B0CF
:1026500004463749206888421FD100BF00200090FF
:102660003448006840F40020324908600846006899
:1026700000F40020009000BF00BF4FF440600190C4
:10268000022002900120039003200490082005906E
:1026900001A92948FEF72EFE47E028492068884214
:1026A00021D100BF002000902248001D006840F0AA
:1026B00010002049091D08600846006800F010005D
:1026C000009000BF00BF4FF4C06001900220029054
:1026D00001200390032004900720059001A91848C9
:1026E000FEF708FE21E01749206888421DD100BF8F
:1026F000002000900F48006840F400300D49086049
:102700000846006800F40030009000BF00BF602061
:1027100001900220029001200390032004900720E2
:10272000059001A90848FEF7E5FD06B010BD0000C0
:10273000004C0040403802400008024000100140B8
:102740000000024000440040000C02407047704707
:1027500000BFFEE71FB51848184908604FF48030E5
:102760004860002115488160016181610162C16298
:10277000134981620021C1600121C161002101630F
:1027800001214161FEF71CF920B140F213110DA0A7
:1027900000F074FF0D2000900120019000200290B5
:1027A00069460648FEF746F820B140F21D1105A023
:1027B00000F064FF1FBD000000200140801D0020CC
:1027C0000100000F2E2E2F5372632F6D61696E2E44
:1027D0006300000000B587B000BF00200190814871
:1027E000006840F010007F4908600846006800F06B
:1027F0001000019000BF00BF00BF002001900846FC
:10280000006840F0040008600846006800F004001A
:10281000019000BF00BF00BF002001900846006883
:1028200040F0800008600846006800F080000190D9
:1028300000BF00BF00BF002001900846006840F0C4
:10284000010008600846006800F00100019000BF28
:1028500000BF00BF002001900846006840F0020061
:1028600008600846006800F00200019000BF00BF49
:1028700000BF002001900846006840F00800086092
:102880000846006800F00800019000BF00BF002269
:1028900046F208015448FEF72DFE012241F20111D3
:1028A0005248FEF727FE012211034F48FEF722FE91
:1028B00001224FF440414E48FEF71CFE01224FF624
:1028C0001F714C48FEF716FE00224FF480514A4813
:1028D000FEF710FE002280214648FEF70BFE002284
:1028E00040214348FEF706FE47F20800029001200F
:1028F000039000200490059002A93B48FEF7FAFCE3
:102900000420029000200390049002A93A48FEF7A8
:10291000F1FC01200290039000200490059002A990
:102920003248FEF7E7FC0820029000200390049054
:1029300002A92E48FEF7DEFC4FF4786002900020DA
:102940000390049002A92848FEF7D4FC4FF44040BD
:10295000029001200390002004900220059002A91B
:102960002348FEF7C7FC4FF6017002900120039048
:10297000002004900220059002A91E48FEF7BAFC30
:102980004FF4885002900120039000200490022010
:10299000059002A91548FEF7ADFC4FF48050029057
:1029A0000120039000200490059002A91248FEF730
:1029B000A1FC9E200290012003900020049005902D
:1029C00002A90C48FEF796FC4020029001200390DB
:1029D00000200490059002A90548FEF78BFC07B083
:1029E00000BD0000303802400010024000000240EC
:1029F00000040240000C0240000802400EB5C02056
:102A000082490870A8204870132088700A20C87076
:102A1000FF207F490870487088700020C870C0206F
:102A20007C490870A8204870132088706420C87002
:102A300003F064FE7548007800067449497840EA5E
:102A400001407249897840EA01207049C9780843F9
:102A500002066E48007800066C49497840EA014059
:102A60006A49897840EA01206849C978084300F436
:102A70007F4042EA002265480078000663494978B1
:102A800040EA01416148807841EA00205F49C97805
:102A9000084300F47F0042EA10225C4800780106F7
:102AA0005A48407841EA00415848807841EA00207D
:102AB0005649C978084342EA1060574908605448AB
:102AC000007800065249497840EA01405049897827
:102AD00040EA01204E49C978084302064C48007874
:102AE00000064B49497840EA01404949897840EA63
:102AF00001204749C978084300F47F4042EA002298
:102B00004348007800064249497840EA014140487C
:102B1000807841EA00203E49C978084300F47F00EC
:102B200042EA10223A48007801063948407841EAE2
:102B300000413748807841EA00203549C978084388
:102B400042EA106035490860324800780006314991
:102B5000497840EA01402F49897840EA01202D490F
:102B6000C978084302062B480078000629494978AD
:102B700040EA01402749897840EA01202549C9787F
:102B8000084300F47F4042EA002222480078000611
:102B90002049497840EA01411E48807841EA0020F6
:102BA0001C49C978084300F47F0042EA1022194802
:102BB000007801061748407841EA004115488078BE
:102BC00041EA00201349C978084342EA10601449D9
:102BD0000860144814490022114BCDE900210290ED
:102BE0000E4A0D49114804F0F3F9104804F0A6FA12
:102BF0000E4890F82B00C0F3800018B10B4804F089
:102C0000E7FA02E0094804F09FFA0EBD0C0000202C
:102C1000100000201400002000000020040000200C
:102C200008000020C9480008954A0008E41E00205A
:102C300010B5002202212520FEF7F0FC2520FEF72A
:102C4000E0FC002202212620FEF7E8FC2620FEF709
:102C5000D8FC002202213420FEF7E0FC3420FEF7ED
:102C6000D0FC002203211920FEF7D8FC1920FEF722
:102C7000C8FC10BD10B50B480B4908600020486027
:102C80007F2109488160FF21C1600021016141610C
:102C90008161FFF747F920B140F2311103A000F044
:102CA000EDFC10BD00280040C81D00202E2E2F5323
:102CB00072632F6D61696E2E6300000000B587B0EE
:102CC000184819490860A82048600021164881600A
:102CD0004FF47A71C160002101614161FFF71DFA73
:102CE00020B140F2451111A000F0C8FC4FF4805013
:102CF000039003A90C48FFF754FA20B140F24B119E
:102D00000AA000F0BBFC00200190029001A9064837
:102D1000FFF7D2F920B14FF4A97104A000F0AEFC86
:102D200007B000BD00000140E81D00202E2E2F53EB
:102D300072632F6D61696E2E6300000010B50C4840
:102D40000C4908604FF4E130486000210948816077
:102D5000C16001610C21416100218161C161FFF706
:102D60003BFC20B140F2651103A000F087FC10BDD0
:102D7000004C0040241E00202E2E2F5372632F6D16
:102D800061696E2E6300000010B50C480C490860A4
:102D90004FF4E1304860002109488160C160016161
:102DA0000C21416100218161C161FFF715FC20B157
:102DB0004FF4BC7103A000F061FC10BD0010014095
:102DC000641E00202E2E2F5372632F6D61696E2EAC
:102DD0006300000010B50C480C4908604FF4E13066
:102DE0004860002109488160C16001610C21416196
:102DF00000218161C161FFF7EFFB20B140F28B112F
:102E000003A000F03BFC10BD00440040A41E0020C5
:102E10002E2E2F5372632F6D61696E2E630000009A
:102E200000BFFEE77047000002480068C0F30220C0
:102E3000704700000CED00E010B5002807DA0A0723
:102E4000140E054A00F00F031B1FD45403E00A07B9
:102E5000130E024A135410BD18ED00E000E400E028
:102E6000704770B5044600252068C06800F0400037
:102E7000A0B9681E2168C860FEF742FB054607E05E
:102E8000FEF73EFB401BB0F57A7F01D9032070BDF1
:102E90002068C06800F040000028F1D00020F6E76C
:102EA000704710B5FEF732FBFFF700F910BD0000C8
:102EB00010B596B000BF002000903648006840F082
:102EC0008050344908600846006800F08050009047
:102ED00000BF00BF00BF002000902F48006840F4F2
:102EE00080402D4908600846006800F4804000904A
:102EF00000BF00BF05200A904FF480300B900120E6
:102F00000C90022010904105119104211291A821EA
:102F1000139102211491042115910AA8FEF7DEFDF8
:102F200018B1C5211DA000F0A9FB0F2005900220BB
:102F30000690002007904FF4A05008904FF4805066
:102F40000990052105A8FEF78BFC18B1D32113A029
:102F500000F094FB02200190C001049001A8FEF74C
:102F6000AFFB18B1DA210DA000F088FBFEF738FDA9
:102F70004FF47A71B0FBF1F42046FFF77DF804209E
:102F8000FFF765F800221146501EFEF747FB16B00A
:102F900010BD000040380240007000402E2E2F531C
:102FA00072632F6D61696E2E630000001448006823
:102FB00040F47000124908601248006840F00100B7
:102FC0001049086000200F49083108600D4800686A
:102FD0000D4908400B4908600C48091D0860081F8E
:102FE000006820F48020091F0860002005490C318A
:102FF00008604FF0006002498039086070470000A7
:1030000088ED00E000380240FFFFF6FE103000249B
:1030100010B50248FFF75FF910BD0000E81D002061
:10302000002202682C4B98420ED0B0F1804F0BD09A
:103030002A4B984208D02A4B984205D0294B9842F7
:1030400002D0294B984201D1012300E000231BB19B
:1030500022F070024B681A431F4B984220D0B0F107
:10306000804F1DD01D4B98421AD01D4B984217D04F
:103070001C4B984214D01C4B984211D01B4B9842C9
:103080000ED01B4B98420BD01A4B984208D01A4BCB
:10309000984205D0194B984202D0194B984201D161
:1030A000012300E000231BB122F44072CB681A43D5
:1030B00002608B68C3620B688362074B984202D040
:1030C000094B984201D1012300E000230BB10B69A9
:1030D0000363012343617047000001400004004086
:1030E00000080040000C0040000401400040014086
:1030F000004401400048014000180040001C00400E
:103100000020004030B50C460021816821F47F4149
:1031100042EA032525432943816030BD0A46002148
:10312000816821F0700142F0070319438160704704
:1031300030B50B46144600210022026A056A25F0CC
:1031400001050562816921F0F00141EA041122F0D4
:103150000A021A438161026230BD30B50B46144643
:1031600000210022056A25F0100505628169026AC6
:1031700021F4704141EA043122F0A00242EA031234
:103180008161026230BD000010B50248FFF77EF990
:1031900010BD0000241E002070B50546AC6B002059
:1031A000E085E0842046FFF770F970BD0168C968CA
:1031B00021F490710268D1600168496921F0010130
:1031C00002685161202180F83A10704710B504461A
:1031D0002068C06820F040002168C860202084F882
:1031E00039002046FFF7B3FA002010BD70B5044641
:1031F00094F83A00222844D1A068B0F5805F13D13A
:10320000A56A206940B920684068C0F3080028809A
:10321000A06A801CA06219E020684068C0B22880C3
:10322000A06A401CA06211E0206938B9206840689B
:10323000C1B2A26A501CA062117007E02068406809
:1032400000F07F01A26A501CA0621170E08D401E48
:1032500080B2E08598B92068C06820F49070216839
:10326000C8602068406920F0010021684861202082
:1032700084F83A002046FFF769FA002070BD00206C
:10328000FCE70220FAE700002DE9F04104460025A2
:103290002068056925F44055E0680543206805610C
:1032A0002068C56849F20C6085432169A06808431D
:1032B00061690843E169084305432068C5602068E7
:1032C000456925F44075A069054320684561E069BA
:1032D000B0F5004F7ED1C4492068884203D0C3496D
:1032E000206888425DD1FEF791FB00EBC00101EB45
:1032F000001061684900B0FBF1F06421B0FBF1F00F
:103300000601FEF783FB00EBC00101EB00106168D2
:103310004900B0FBF1F7FEF779FB00EBC00101EBD0
:10332000001061684900B0FBF1F06421B0FBF1F0DE
:1033300000EBC00101EB0010A7EB8000322101EB94
:10334000C0006421B0FBF1F000F0F80006EB40068D
:10335000FEF75CFB00EBC00101EB00106168490067
:10336000B0FBF1F7FEF752FB00EBC00101EB0010E0
:1033700061684900B0FBF1F06421B0FBF1F000EBB3
:10338000C00101EB0010A7EB8000322101EBC0006F
:103390006421B0FBF1F000F0070030442168886040
:1033A00020E1FEF723FB00EBC00101EB0010616898
:1033B0004900B0FBF1F06421B0FBF1F00601FEF72B
:1033C00015FB00EBC00101EB001061684900B0FB88
:1033D000F1F700E045E0FEF709FB00EBC00101EB6F
:1033E000001061684900B0FBF1F06421B0FBF1F01E
:1033F00000EBC00101EB0010A7EB8000322101EBD4
:10340000C0006421B0FBF1F000F0F80006EB4006CC
:10341000FEF7ECFA00EBC00101EB00106168490017
:10342000B0FBF1F7FEF7E2FA00EBC00101EB001090
:1034300061684900B0FBF1F06421B0FBF1F000EBF2
:10344000C00101EB0010A7EB8000322101EBC000AE
:103450006421B0FBF1F000F007003044216888607F
:10346000C0E061492068884203D0604920688842F2
:103470005CD1FEF7CBFA00EBC00101EB00106168F4
:103480008900B0FBF1F6FEF7C1FA00EBC00101EBD9
:10349000001061688900B0FBF1F06421B0FBF1F02D
:1034A00000EBC00101EB0010A6EB8000322101EB24
:1034B00000106421B0FBF1F000F0F006FEF7A6FA70
:1034C00000EBC00101EB001061688900B0FBF1F076
:1034D0006421B0FBF1F006EB0016FEF797FA00EB63
:1034E000C00101EB001061688900B0FBF1F7FEF745
:1034F0008DFA00EBC00101EB001061688900B0FBA0
:10350000F1F06421B0FBF1F000EBC00101EB001021
:10351000A7EB8000322101EB00106421B0FBF1F039
:1035200000F00F003044216888605BE0FEF75EFA2F
:1035300000EBC00101EB001061688900B0FBF1F6FF
:10354000FEF754FA00EBC00101EB0010616889003E
:10355000B0FBF1F06421B0FBF1F000EBC00101EB36
:103560000010A6EB8000322101EB00106421B0FBBB
:10357000F1F000F0F006FEF739FA00EBC00101EBC4
:10358000001061688900B0FBF1F06421B0FBF1F03C
:1035900006EB0016FEF72AFA00EBC00101EB001063
:1035A00061688900B0FBF1F7FEF720FA00EBC0017B
:1035B00001EB001061688900B0FBF1F06421B0FB01
:1035C000F1F000EBC00101EB0010A7EB800032210D
:1035D00001EB00106421B0FBF1F000F00F0030446B
:1035E00021688860BDE8F0810010014000140140AE
:1035F000014691F8390021282CD18868B0F5805F08
:103600000FD10A6A1088C0F308000B685860086977
:1036100018B9086A801C086209E0086A401C086240
:1036200005E00B6A581C086218780B685860C88C53
:10363000401E80B2C88458B90868C06820F0800075
:103640000B68D8600868C06840F040000B68D8601C
:10365000002070470220FCE710B50248FEF716FF75
:1036600010BD0000641E002010B50248FEF70EFFDA
:1036700010BD0000A41E002000BFFEE700BFFEE753
:103680000FB4054B10B503A9044A029800F018F8CE
:1036900010BC5DF814FB0000254B00087C1D0020C9
:1036A00002E008C8121F08C1002AFAD1704770470B
:1036B000002001E001C1121F002AFBD17047000069
:1036C0002DE9FF4F8BB09A460F460546002606E0CF
:1036D00025280BD052460D9990476D1C761C2878F2
:1036E0000028F5D10FB03046BDE8F08F0024A04689
:1036F0000122604900E0044315F8013F203B02FA33
:1037000003F00842F7D128782E2817D115F8010FB9
:1037100044F004042A280ED06FF02F022878A0F17C
:10372000300109290AD808EB880102EB410100EBBE
:1037300001086D1CF2E757F8048B6D1C2878692886
:103740003ED006DC0028CDD063280BD0642804D1FD
:1037500036E0732810D075284BD052460D9990470B
:10376000761C85E017F8040B8DF8000000208DF81A
:103770000100E946012003E057F8049B4FF0FF30B9
:1037800061074FF0000401D40AE0641C44450DDADF
:103790008442FADB19F804100029F6D106E0641C13
:1037A0008442FCDB19F804100029F8D1264404E017
:1037B00019F8010B52460D999047641EF8D257E054
:1037C00001CF4FF00A0B002802DA40422D2102E01F
:1037D000210504D52B218DF82410012103E0E107F8
:1037E00005D02021F7E70DF1200908910CE0002118
:1037F000F9E701CF4FF00A0BF9E75946FCF742FD14
:1038000001F1300209F8012D0028F6D1ADEB0900D5
:1038100000F1200B600701D44FF00108D84502DD0C
:10382000A8EB0B0000E000208046002406E009A879
:103830005246005D0D999047641C761C089884429E
:10384000F5DB04E0302052460D999047761CB8F124
:103850000001A8F10108F5DC05E019F8010B52465A
:103860000D999047761CBBF10001ABF1010BF4DC24
:103870006D1C34E7092801002DE9F0478046894690
:1038800014461D462B4622464946404602F03EFC61
:1038900000260AE0002704E0002002F0B9FD781CB1
:1038A00087B2AF42F8DB701CC6B2A642F2DBBDE8BD
:1038B000F087000070B504462546686880472246B8
:1038C0000249286804F078FD70BD0000B538000892
:1038D000232000BF411EC9B2081EFBD17047000063
:1038E00070B504460D4600BF05F00300002808D05F
:1038F00000BF08A34FF4CE7212A11AA0FFF7C0FEBA
:1039000000BF00BF2E46A06800683060A068066057
:1039100070BD00002E2E2F4D6964646C6577617256
:1039200065732F54686972645F50617274792F4CAB
:103930007749502F7372632F636F72652F6D656DBA
:10394000702E63006D656D705F667265653A206DFF
:10395000656D2070726F7065726C7920616C69673B
:103960006E656400417373657274696F6E20222501
:103970007322206661696C6564206174206C696ED5
:103980006520256420696E2025730A0070B5054600
:10399000A8680468002C13D02068A968086000BFDC
:1039A00004F00300002808D000BF06A34FF4A4725F
:1039B00010A119A0FFF764FE00BF00BF204670BD34
:1039C0000020FCE72E2E2F4D6964646C65776172D0
:1039D00065732F54686972645F50617274792F4CFB
:1039E0007749502F7372632F636F72652F6D656D0A
:1039F000702E63006D656D705F6D616C6C6F633A06
:103A0000206D656D702070726F7065726C792061C9
:103A10006C69676E65640000417373657274696FE9
:103A20006E2022257322206661696C6564206174B2
:103A3000206C696E6520256420696E2025730A005C
:103A400070B50546002412E004EB4400094901EB7F
:103A5000C000067D4EB104EB440001EBC00080685D
:103A6000A84202D1204600F077F9601CC4B20A2CAB
:103A7000EADB70BD085000202DE9FE4F064688465F
:103A80004FF00A09CA460A270024BB4600200290CC
:103A90000190009000BF6BE004EB44006F4901EB24
:103AA000C000057D0A2F02D10DB967B25EE0002D7E
:103AB0005CD000BF012D0AD0022D08DA00BF68A338
:103AC00040F2251274A184A0FFF7DAFD00BF00BF09
:103AD0005EB104EB4401614A02EBC1013068496800
:103AE000884202D160B2BDE8FE8F012D2AD104EBDD
:103AF00044005A4951F8300088B104EB440001EB0E
:103B0000C000418A0298814230DB4FFA84FB04EB0B
:103B10004400524901EBC000408A029026E004EBC9
:103B200044004E4901EBC000418A019881421DDBEF
:103B30004FFA84F904EB4400484901EBC000408A85
:103B4000019013E0022D11DB04EB4400434901EB2B
:103B5000C000418A0098814208DB4FFA84FA04EBE6
:103B600044003E4901EBC000408A0090601CC4B292
:103B70000A2C91DB08F0020020B90A2F05D108F0C9
:103B8000010010B94FF0FF30ADE70A2F01DAFCB2A7
:103B900034E0BAF10A0F12DA0AF0FF0400BF04EBB6
:103BA00044002E4951F8300040B100BF2CA340F230
:103BB0006F1253A148A0FFF763FD00BF0EE0B9F1FB
:103BC0000A0F02DA09F0FF0408E0BBF10A0F02DA7B
:103BD0000BF0FF0402E04FF0FF3084E700BF0A2C37
:103BE00008DB00BF1EA340F281124BA13AA0FFF7F1
:103BF00047FD00BF00BF204600F0AEF800BF0A2C12
:103C000008DB00BF16A340F2851243A132A0FFF7E4
:103C100037FD00BF00BF00BF04EB44000F4901EBBC
:103C2000C000007D40B100BF0DA34FF4C3723FA19F
:103C300029A0FFF725FD00BF00BF36B104EB44010A
:103C4000064A02EBC10130684860002004EB4401E1
:103C5000024A02EBC101488260B244E708500020EA
:103C60002E2E2F4D6964646C6577617265732F54D5
:103C7000686972645F50617274792F4C7749502F74
:103C80007372632F636F72652F697076342F65745A
:103C9000686172702E6300007374617465203D3D2D
:103CA000204554484152505F53544154455F50455C
:103CB0004E44494E47207C7C207374617465203EDD
:103CC0003D204554484152505F53544154455F5341
:103CD0005441424C45000000417373657274696F32
:103CE0006E2022257322206661696C6564206174F0
:103CF000206C696E6520256420696E2025730A009A
:103D00006172705F7461626C655B695D2E71203DEC
:103D10003D204E554C4C000069203C204152505FE4
:103D20005441424C455F53495A4500006172705FEF
:103D30007461626C655B695D2E7374617465203DAE
:103D40003D204554484152505F53544154455F45CE
:103D50004D5054590000000010B5044604EB4400D7
:103D60000C4951F8300060B104EB4401094A52F8A3
:103D7000310003F059FF002004EB4401054A42F8EA
:103D80003100002004EB4401024A02EBC101087536
:103D900010BD000008500020F0B587B007460D4662
:103DA00000BF002D0AD100BF2EA34FF422723BA109
:103DB0003EA0FFF765FC00BF07B0F0BD00BF7C6808
:103DC0002088B0F5807F08D12079062805D1607958
:103DD000042802D16088082803D0384603F024FF65
:103DE000EAE7D4F80E000690A0690590686808B963
:103DF000002607E005986968884201D1012000E0AB
:103E0000002006460EB1012000E00220034604F126
:103E1000080206A9284600F0A9FCE088B0F5807FDA
:103E200003D0B0F5007F15D113E086B1022206ABB6
:103E300004F10800291DCDE90232CDE9001005F199
:103E4000250302462131284600F03CFB00E000BF7C
:103E500001E000E000BF00BF384603F0E5FE00BF10
:103E6000AAE700002E2E2F4D6964646C657761729D
:103E700065732F54686972645F50617274792F4C56
:103E80007749502F7372632F636F72652F69707655
:103E9000342F6574686172702E6300006E657469FA
:103EA0006620213D204E554C4C0000004173736547
:103EB0007274696F6E2022257322206661696C65B9
:103EC00064206174206C696E6520256420696E2011
:103ED00025730A002DE9FE4305460F461446A14608
:103EE00000BF002D08D100BF55A340F21B3262A1D4
:103EF00065A0FFF7C5FB00BF00BF00BF47B900BF0B
:103F00004FA34FF447726AA15FA0FFF7B9FB00BF50
:103F100000BF00BF002C08D100BF49A340F21D32F2
:103F200066A159A0FFF7ACFB00BF00BF294620687F
:103F300000F0D3FF10B1DFF8948176E0207800F034
:103F4000F000E02816D101208DF8040000208DF843
:103F500005005E208DF80600607800F07F008DF887
:103F60000700A0788DF80800E0788DF809000DF1C1
:103F7000040859E02068A9680840D5E901121140F9
:103F800088420ED0208880B24FF6A961884208D0BE
:103F9000E86810B105F10C0903E06FF00300BDE81B
:103FA000FE834B48007800EB40004A4901EBC0001B
:103FB000007D022812DB4649097801EB4101454AA0
:103FC00002EBC101D9F800004968884206D1404897
:103FD00002783946284600F07FF8E0E700261BE02B
:103FE00006EB46003B4901EBC000007D022811DBD7
:103FF00006EB4601374A02EBC101D9F800004968D7
:10400000884207D132490E70F2B23946284600F094
:1040100063F8C4E7701C46B20A2EE1DB3A46494613
:10402000284600F00DF9BAE700BF4FF400604346A0
:1040300005F1250239460090284600F0A9FCAEE7BC
:104040002E2E2F4D6964646C6577617265732F54F1
:10405000686972645F50617274792F4C7749502F90
:104060007372632F636F72652F697076342F657476
:10407000686172702E6300006E6574696620213D70
:10408000204E554C4C000000417373657274696F8B
:104090006E2022257322206661696C65642061743C
:1040A000206C696E6520256420696E2025730A00E6
:1040B0007120213D204E554C4C0000006970616418
:1040C000647220213D204E554C4C000020C7000852
:1040D000E11C002008500020F8B505460E461446A5
:1040E00000BF04EB4400314901EBC000007D022811
:1040F00008DA00BF2EA34FF43B723BA146A0FFF7A6
:10410000BFFA00BF00BF04EB4400284901EBC00028
:10411000007D022839D104EB440001EBC000408A45
:10412000B0F58E7F11DD04EB44000A4602EBC000BF
:10413000011D284600F08AFA38BB032004EB440135
:104140001A4A02EBC10108751FE004EB440017494D
:1041500001EBC000408AB0F5877F16DB04EB44001A
:104160000B4603EBC00000F10C0204EB440003EB30
:10417000C000011D284600F075FA30B9032004EB99
:1041800044010A4A02EBC10108754FF40060009037
:1041900004EB4400054901EBC00000F10C0305F1FC
:1041A00025023146284600F0F3FBF8BD08500020F8
:1041B0002E2E2F4D6964646C6577617265732F5480
:1041C000686972645F50617274792F4C7749502F1F
:1041D0007372632F636F72652F697076342F657405
:1041E000686172702E6300006172705F7461626C4E
:1041F000655B6172705F6964785D2E73746174656C
:10420000203E3D204554484152505F53544154454F
:104210005F535441424C4500417373657274696F3A
:104220006E2022257322206661696C6564206174AA
:10423000206C696E6520256420696E2025730A0054
:104240002DE9FC5F80460F46164608F125094FF020
:10425000FF3001904FF0000A4146386800F03DFE03
:1042600038B9387800F0F000E02802D00FB1386893
:1042700018B96FF00F00BDE8FC9F42460121384697
:10428000FFF7FAFB0446002C01DA2046F3E704EBC3
:1042900044005E4901EBC000007D78B94FF0010A8F
:1042A000012004EB4401594A02EBC101087504EBFB
:1042B0004400114601EBC000C0F8088000BF04EBC9
:1042C0004400524901EBC000007D01280FD004EBEF
:1042D000440001EBC000007D022808DA00BF4CA3B7
:1042E00040F2C73258A162A0FFF7CAF900BF00BF71
:1042F000BAF1000F00D13EB93946404600F0A6F9A8
:1043000001900EB90198B6E700BF46B900BF40A3BF
:1043100040F2DB3260A156A0FFF7B2F900BF00BF48
:1043200004EB4400394901EBC000007D022812DB98
:104330005C490C704FF40060009004EB440033497A
:1043400001EBC00000F10C034A463146404600F044
:104350001FFB019058E004EB44002C4901EBC00026
:10436000007D012850D14FF0000B354617E000BF0B
:104370006889298988420AD1286840B100BF24A3EE
:104380004FF47B7248A13AA0FFF77AF900BF00BF53
:10439000287B012802D04FF0010B02E02D68002D90
:1043A000E5D100BFBBF1000F10D029890022022007
:1043B00002F024FF05466DB13146284603F06EFA3F
:1043C00040B1284603F030FC002503E0354628467E
:1043D00003F0BEFEA5B104EB44000C4951F83000D7
:1043E00030B104EB4401094A52F8310003F01CFCDF
:1043F00004EB4400054941F830500020019002E0F0
:104400004FF0FF30019000BF019834E708500020C2
:104410002E2E2F4D6964646C6577617265732F541D
:10442000686972645F50617274792F4C7749502FBC
:104430007372632F636F72652F697076342F6574A2
:10444000686172702E6300006172705F7461626CEB
:10445000655B695D2E7374617465203D3D20504538
:104460004E44494E47206F7220535441424C450000
:10447000417373657274696F6E2022257322206602
:1044800061696C6564206174206C696E65202564C7
:1044900020696E2025730A007120213D204E554C65
:1044A0004C000000E11C00206E6F207061636B65A2
:1044B000742071756575657320616C6C6F776564C8
:1044C000210000002DE9FC5F06460F469046994604
:1044D000DDE90CAB0020019000BF002E08D100BF29
:1044E00030A34FF48B623DA140A0FFF7C9F800BF95
:1044F00000BF00221C21022002F080FE05461DB9EB
:104500004FF0FF30BDE8FC9F00BF68891C2808DA27
:1045100000BF24A340F263423EA134A0FFF7B0F8ED
:1045200000BF00BF6C680F9802F0E1F8E08000BFA8
:1045300096F82400062808D000BF1AA340F26A4269
:1045400041492AA0FFF79CF800BF00BFD9F800003E
:10455000A060B9F80400A081DBF80000C4F81200E4
:10456000BBF80400E082DAF80000C4F80E000E98F0
:104570000068A0614FF480702080082060800620D1
:1045800020710420607140F6060043463A462946F1
:104590000090304600F0FCF9284603F045FB00256A
:1045A0000198AFE72E2E2F4D6964646C65776172B8
:1045B00065732F54686972645F50617274792F4C0F
:1045C0007749502F7372632F636F72652F6970760E
:1045D000342F6574686172702E6300006E657469B3
:1045E0006620213D204E554C4C0000004173736500
:1045F0007274696F6E2022257322206661696C6572
:1046000064206174206C696E6520256420696E20C9
:1046100025730A00636865636B20746861742066A3
:104620006972737420706275662063616E20686FB2
:104630006C64207374727563742065746861727041
:104640005F6864720000000024C8000870B504466A
:104650000D46034A2946204600F004F870BD0000CC
:1046600020C700087FB504460D4616460121074ABB
:10467000201D04F125038DE82500039132461946DB
:104680002046FFF71FFF04B070BD000026C70008DA
:1046900070B5002465E004EB4400334901EBC00031
:1046A000057D002D5BD004EB440001EBC000408A87
:1046B000401C04EB44012C4A02EBC101488204EB8C
:1046C0004400114601EBC000408AB0F5967F0DDA38
:1046D00004EB440001EBC000007D01280AD104EB8B
:1046E000440001EBC000408A052803DB2046FFF7A9
:1046F00033FB34E004EB44001B4901EBC000007DB8
:10470000032807D1042004EB4401174A02EBC1013E
:10471000087524E004EB4400134901EBC000007D60
:10472000042807D1022004EB44010F4A02EBC10127
:10473000087514E004EB44000B4901EBC000007D58
:1047400001280CD104EB44020B4603EBC202111DFD
:1047500004EB440203EBC2029068FFF777FF601C92
:10476000C4B20A2C97DB70BD085000202DE9F84335
:1047700005460E461746984600BF95F824000628C1
:1047800008D000BF2EA340F2AB123BA143A0FEF71E
:1047900077FF00BF00BF5EB1306848B1294630687E
:1047A00000F09BFB20B9307800F0F000E02803D146
:1047B0006FF00F00BDE8F8832A4641463046FFF708
:1047C0005BF90446002C01DA2046F3E7022004EBF3
:1047D00044013C4A02EBC101087504EB4400114658
:1047E00001EBC000856004EB440001EBC0003968B8
:1047F000C160B9880182002004EB440102EBC101D1
:10480000488204EB4400114651F83000B0B104EB8B
:10481000440051F83090002004EB440142F831008C
:104820004FF400603B4605F12502494600902846BA
:1048300000F0AEF8484603F0F7F900BF0020B9E7F2
:104840002E2E2F4D6964646C6577617265732F54E9
:10485000686972645F50617274792F4C7749502F88
:104860007372632F636F72652F697076342F65746E
:10487000686172702E6300006E657469662D3E6813
:1048800077616464725F6C656E203D3D20455448DD
:104890005F4857414444525F4C454E004173736535
:1048A0007274696F6E2022257322206661696C65BF
:1048B00064206174206C696E6520256420696E2017
:1048C00025730A00085000202DE9F04104460F46E8
:1048D0000E2660890E2800DC53E06568B5F80C8070
:1048E000287800F00100B0B12878012809D1687853
:1048F00088B9A8785E280ED1607B40F01000607304
:1049000009E0062221492846FBF7AFFC18B9607B75
:1049100040F008006073B8F1080F03D0B8F5C16F1C
:104920002AD114E097F82B0000F0080000B928E025
:104930006089B04205DB704201B2204603F04CFAB8
:1049400000B11EE03946204600F052FC15E097F811
:104950002B0000F0080000B913E06089B04205DBCD
:10496000704201B2204603F037FA00B109E039463F
:104970002046FFF711FA00E003E000BF0020BDE889
:10498000F081204603F050F90020F8E720C7000826
:104990002DE9F04705460E4617469846DDF820906B
:1049A000484601F0A4FE82460E21304603F014FA78
:1049B00000B122E07468A4F80CA0D8F800002060D0
:1049C000B8F80400A0803868C4F80600B888608190
:1049D00000BF95F82400062808D000BF08A340F2C5
:1049E0002B1215A121A0FEF74BFE00BF00BF3146E0
:1049F0002846AA699047BDE8F0876FF00100FAE702
:104A00002E2E2F4D6964646C6577617265732F5427
:104A1000686972645F50617274792F4C7749502FC6
:104A20007372632F6E657469662F65746865726E44
:104A300065742E63000000006E657469662D3E6823
:104A400077616464725F6C656E206D75737420624B
:104A500065203620666F722065746865726E6574B5
:104A60005F6F757470757421000000004173736589
:104A70007274696F6E2022257322206661696C65ED
:104A800064206174206C696E6520256420696E2045
:104A900025730A0010B5044600BF44B900BF0CA33B
:104AA0004FF408720FA113A0FEF7EAFD00BF00BF8C
:104AB000732084F82C0074212D2001551748606163
:104AC0001748A061204601F01FFD002010BD000026
:104AD0002E2E2F5372632F65746865726E6574692C
:104AE000662E63006E6574696620213D204E554C2C
:104AF0004C000000417373657274696F6E2022254B
:104B00007322206661696C6564206174206C696E33
:104B10006520256420696E2025730A00D53E0008B3
:104B2000ED65000838B504468DF80000694603209D
:104B3000ABBE204638BD70B505460C462246032163
:104B4000284600F035F970BD2DE9FF5F05468A461D
:104B50006348D0F808B09BF800000007860E142EBA
:104B600000DAB3E06889042800D2AFE0686804780E
:104B700014B1082C7DD100E0A2E0DFF8649109F1C6
:104B800014095748007D00F0F000E02800D1A1E0B2
:104B9000534A1168506900F0A0F900B19AE02889E1
:104BA000082800D292E006F10E0001B2284603F078
:104BB00013F900283AD02889304481B2002202201B
:104BC00002F01CFB074607B984E0798906F108006A
:104BD000814203D2384603F027F87BE0324659463B
:104BE0007868FBF71EFB704201B2384603F0F4F818
:104BF00000280DD000BF00BF3AA3AF2247A155A0A7
:104C0000FEF73EFD00BF00BF384603F00DF861E03F
:104C10002946384602F042FE18B1384603F004F83F
:104C200058E0284603F000F83D4612E006F10E0079
:104C3000404201B2284603F0CFF850B100BF00BF98
:104C400028A3C0224DA143A0FEF71AFD00BF00BF5C
:104C500040E0D5F8048031B2284603F0BDF8E0B951
:104C60006F68D9F80000F8601D48006938610020BD
:104C700000E013E088F80000A8F80200FF20387276
:104C8000002078810121FF2302468DE80304494674
:104C9000284600F08BFB039000BF11E0032C0ED0E0
:104CA0000B2C0CD00C2C0AD0042C08D0052C06D0D0
:104CB0000D2C04D00E2C02D0112C00D000BF00BF50
:104CC00000BF284602F0B0FFBDE8FF9F284602F073
:104CD000ABFFF9E7284602F0A7FF00BFF4E70000AA
:104CE000848500202E2E2F4D6964646C6577617277
:104CF00065732F54686972645F50617274792F4CC8
:104D00007749502F7372632F636F72652F697076C6
:104D1000342F69636D702E630000000069636D704D
:104D20005F696E7075743A206D6F76696E67207278
:104D30002D3E7061796C6F616420746F2069636DC2
:104D40007020686561646572206661696C65640ADB
:104D500000000000417373657274696F6E20222534
:104D60007322206661696C6564206174206C696ED1
:104D70006520256420696E2025730A0069636D70C3
:104D80005F696E7075743A20726573746F72696EC4
:104D900067206F726967696E616C20702D3E70616B
:104DA000796C6F6164206661696C65640A0000005B
:104DB0002DE9FF470746884691460022242101201D
:104DC00002F01CFA05460DB9BDE8FF8700BF6889EF
:104DD000242808D200BF19A340F2611225A130A0F7
:104DE000FEF74EFC00BF00BFD7F804A06C6884F843
:104DF000008084F801900020A080E08079686A68D3
:104E000002F108001C22FBF70CFADAF80C00039000
:104E100003A800F09BFC06465EB1002060800120E4
:104E20000021FF2303AACDE901060091284600F0E6
:104E3000BDFA284602F0F8FE00BFC5E72E2E2F4D22
:104E40006964646C6577617265732F546869726414
:104E50005F50617274792F4C7749502F7372632FB2
:104E6000636F72652F697076342F69636D702E637E
:104E700000000000636865636B20746861742066DD
:104E80006972737420706275662063616E20686F4A
:104E90006C642069636D70206D6573736167650074
:104EA000417373657274696F6E20222573222066C8
:104EB00061696C6564206174206C696E652025648D
:104EC00020696E2025730A0070B505460C462246FF
:104ED0000B212846FFF76CFF70BD18B50246009203
:104EE000D04300B10AB9012018BD91F82B0000F0A1
:104EF000020008B90020F7E74868904201D100207D
:104F0000F2E700988B681840D1E9013423409842B9
:104F100008D1886822EA00008C68E343984201D1F6
:104F20000120E1E70020DFE72DE9F74F8CB00446D0
:104F30000F464FF00008798CA1F11400C11700EB67
:104F40005171C1F3CF010891142004906068099059
:104F5000DDF8249000BF99F8000000F00F00142144
:104F6000B1EB800F0DD000BF6EA340F2E1227CA117
:104F700085A0FEF785FB00BF6FF005000FB0BDE810
:104F8000F08F00BFB9F8060001F0B1FB8346CBF308
:104F90000C00069000BF0BF4005000280BD000BF9F
:104FA00060A340F2E62282A177A0FEF769FB00BF72
:104FB0006FF00500E2E700BF208914381FFA80FA7D
:104FC000A6E00898BAEBC00F01DA504601E0089855
:104FD000C00080B2079000221421022002F00EF9D6
:104FE000054605B99AE000BF6089142808DA00BFB9
:104FF0004CA34FF4427275A163A0FEF741FB00BFC2
:1050000000BF142268680999FBF70BF9D5F80490E2
:1050100007980A9045E061890498081A80B20390C5
:1050200003990A98884201DA0A9800E003988046BA
:10503000B8F1000F03D100200490246831E000F0A3
:10504000CDFB06461EB9284602F0EEFD66E061681B
:1050500004980844334602224146CDE90008042062
:1050600002F0E4FA0B900B9830B9304600F0BCFB2C
:10507000284602F0D9FD51E0204603F069F874613A
:105080005A48306128460B9902F056FB0A98A0EB6B
:10509000080080B20A900A9810B100200490246899
:1050A00000BF0A980028B6D10498404480B204900A
:1050B000788C1438504501DB012000E00020059079
:1050C0000698C0F30C0B059808B94BF4005B5846E2
:1050D00001F00DFBA9F806000799143188B201F020
:1050E00006FBA9F802000020A9F80A007B692946FE
:1050F00038460E9A9847284602F096FD0798AAEB84
:1051000000001FFA80FA08990698084480B20690B9
:10511000BAF1000F7FF455AF00202FE74FF0FF30BA
:105120002CE700002E2E2F4D6964646C6577617248
:1051300065732F54686972645F50617274792F4C83
:105140007749502F7372632F636F72652F69707682
:10515000342F6970345F667261672E63000000004F
:105160006970345F66726167282920646F657320F7
:105170006E6F7420737570706F7274204950206F59
:105180007074696F6E730000417373657274696F38
:105190006E2022257322206661696C65642061742B
:1051A000206C696E6520256420696E2025730A00D5
:1051B00069705F6672616728293A204D4620616CEC
:1051C00072656164792073657400000074686973A6
:1051D000206E656564732061207062756620696E5B
:1051E000206F6E652070696563652100295F000886
:1051F0002DE9F04706460F46756828780421B1EB83
:10520000201F05D0304602F00FFD0020BDE8F087DA
:10521000287800F00F084FF6FF7000EA88086888C9
:1052200001F065FA81463189494503DD494630463A
:1052300002F0A0FE7089404505DB3089484502DB5D
:10524000B8F1140F04DA304602F0EEFC0020DDE77E
:10525000286954494861E86808610846007D00F003
:10526000F000E0280AD197F82B0000F0010018B1F7
:10527000786808B13C462EE000242CE04FF0010A8B
:105280003C4600BF94F82B0000F0010068B1606854
:1052900058B1444840696168884205D0414948692D
:1052A0002146FFF71AFE00B113E0BAF1000F0AD051
:1052B0003C48007D7F2801D100240AE04FF0000A1D
:1052C0003948046800E02468BC4200D12468002CFE
:1052D000D8D100BF00BF334908693946FFF7FDFD4B
:1052E00028B93048007C00F0F000E02804D13046B6
:1052F00002F09AFC002089E724B9304602F094FCC1
:10530000002083E7E8884FF63F71084038B1304607
:1053100000F030F906460EB9002077E7756821489D
:1053200004604760856028780007800E1D498881E9
:10533000C8F1000001B2304602F04EFD687A012843
:1053400006D0062809D13946304603F045FE1EE056
:1053500039463046FFF7F8FB19E012494869214603
:10536000FFF7BBFD78B90F48007D00F0F000E028A2
:1053700009D00FFA88F1304602F037FD756002213E
:105380003046FFF7D8FB304602F04EFC00BF00BFAE
:10539000002004490860486088608881086148618D
:1053A00000BF33E784850020E41C00202DE9FE4F78
:1053B00007460C4615469846DDE90C9A0E9EA34614
:1053C00025B10CB1206808B906F1040B43462A4602
:1053D00059463846CDE9009A029600F003F8BDE838
:1053E000FE8F00002DE9F84F05460F4690469A467D
:1053F000DDF828B00C9E00BFE889012808D000BF66
:1054000034A340F2333240A142A0FEF739F900BF85
:1054100000BFB8F1000F46D04FF014091421284600
:1054200002F0DAFC18B16FF00100BDE8F88F6C688B
:1054300000BF6889142808D200BF26A34FF4587211
:105440003EA134A0FEF71CF900BF00BF84F808A0FD
:105450000B986072D8F80000206148464FEAE97165
:1054600009EB9171C1F3870141F04001217084F88B
:1054700001B0288901F03BF960800020E0803B48C2
:10548000008801F034F9A08038480088401C374972
:1054900008801FB936480068E06001E03868E060C5
:1054A0000020608103E06C6820690090E846708C01
:1054B00048B12889718C884205DD4246314628462C
:1054C000FFF732FDB1E742462946304673699847F7
:1054D000ABE700002E2E2F4D6964646C6577617216
:1054E00065732F54686972645F50617274792F4CD0
:1054F0007749502F7372632F636F72652F697076CF
:10550000342F6970342E6300702D3E726566203D25
:105510003D203100417373657274696F6E202225DE
:105520007322206661696C6564206174206C696E09
:105530006520256420696E2025730A006368656311
:105540006B20746861742066697273742070627570
:10555000662063616E20686F6C642073747275637B
:10556000742069705F686472000000006C1D002088
:10557000ACC700082DE9F14F82B002984568287841
:1055800000F00F001421B1EB800F00D0D5E0E888C7
:1055900001F0ADF8C0F30C004FF6FF7101EAC0094D
:1055A000688801F0A4F8297801F00F01A0EB8100D0
:1055B00080B20090029802F067F9064661480188BF
:1055C00088190A280ADD3146284600F04FFC20B130
:1055D0005C48008830440A2800DDAEE05A48046880
:1055E00011E06069E968884209D1A06929698842A7
:1055F00005D1A089A988884201D1012000E00020BE
:1056000000B102E02468002CEBD100BF34B9314670
:10561000284600F015FB044694B98EE0E88801F0B6
:1056200066F8C0F30C0058B9E08901F060F8C0F3E7
:105630000C0028B11422294604F10800FAF7F1FD04
:10564000E888012121EA501BBBF1000F0AD0009924
:10565000494488B2484503DB4FF6EB71884200DDD0
:105660006BE000BF5A462046029900F009F98246D5
:105670000AF1010000B960E0324800883044314945
:105680000880BBF1000F08D00099494488B2A0837C
:10569000A17F41F00101A17700BFBAF1010F4AD10A
:1056A000A08B1430A08360684068D0F800806068E8
:1056B0004568142204F108012846FAF7B2FDA08BD0
:1056C00001F015F868800020E88068816068029029
:1056D0000EE0D8F8040001906FF01301404602F08C
:1056E0007BFB4146029802F027F80198D0F8008031
:1056F000B8F1000FEDD114480068844201D10027B1
:105700000AE01148076804E03868A04200D102E0CE
:105710003F68002FF8D100BF3946204600F02EFA2E
:10572000029802F0B1F807490988081A054908806B
:105730000298BDE8FE8F0020FBE7029802F074FAA1
:105740000020F6E7341D0020301D002010B5024671
:105750002048016821E091F82B0000F00100D8B149
:1057600091F82B00C0F38000B0B14868A0B1106878
:105770008B681840D1E901342340984201D1084692
:1057800010BD91F82B0000F0020028B91068CB681A
:10579000984201D10846F3E709680029DBD10E4899
:1057A000006888B10C48006890F82B0000F00100F8
:1057B00050B10948006890F82B00C0F3800018B180
:1057C00005480068406808B90020D9E70248006829
:1057D000D6E70000E41C0020E81C002010B50420DF
:1057E00001F09EFB10BD000010B5044600BF002C68
:1057F00008D100BF06A340F2AE2214A116A0FDF707
:105800003FFF00BF00BF2146042001F00BFB10BD8D
:105810002E2E2F4D6964646C6577617265732F5409
:10582000686972645F50617274792F4C7749502FA8
:105830007372632F636F72652F697076342F69708E
:10584000345F667261672E63000000007020213DA6
:10585000204E554C4C000000417373657274696FA3
:105860006E2022257322206661696C656420617454
:10587000206C696E6520256420696E2025730A00FE
:105880002DE9F74F82B00646884600254FF0010B00
:10589000D8F804A0BAF8020000F029FF9AF8001026
:1058A00001F00F01A0EB810080B20090BAF8060071
:1058B00000F01DFFC0F30C004FF6FF7101EAC000BD
:1058C000019000BF00BFD8F804400020206001987C
:1058D000A080DDE900100844E080D6F8049036E0AE
:1058E000D9F80470A088B98888421CDAC4F80090FE
:1058F0008DB1A088E988884203DBE088B9888842B6
:1059000000DDB3E0C5F80080E888A188884209D0AE
:105910004FF0000B06E0E088B988884200DDA5E082
:10592000C6F8048016E0A088B988884200D19DE0BE
:10593000A088F988884200DA98E02DB1E888B98813
:10594000884201D04FF0000BD7F800903D46B9F1E6
:10595000000FC5D100BFB9F1000F29D1002D17D01C
:1059600000BFE888A188884208DD00BF46A340F256
:10597000AB1254A15BA0FDF783FE00BF00BFC5F8CA
:105980000080E888A188884212D04FF0000B0FE019
:1059900000BF7068002808D000BF3BA340F2B312DC
:1059A0005AA150A0FDF76CFE00BF00BFC6F80480EE
:1059B000049820B9B07F00F00100002854D0BBF15A
:1059C000000F48D0706818B170684068808810B1C6
:1059D0004FF0000B3FE02546D4F800900BE0D9F8DB
:1059E0000440E888A188884202D04FF0000B05E00F
:1059F0002546D4F80090B9F1000FF0D100BFBBF1FB
:105A0000000F28D000BF706840B900BF1EA34FF43C
:105A1000EA724CA133A0FDF733FE00BF00BF00BF08
:105A200070684068A04208D100BF17A340F2D512A9
:105A300044A12CA0FDF724FE00BF00BF00BF2068DA
:105A400040B100BF10A340F2D71242A125A0FDF73C
:105A500017FE00BF00BFBBF1000F03D0012005B04F
:105A6000BDE8F08F0020FAE70020F8E7404601F09B
:105A70000BFF41490988081A3F490880404602F057
:105A8000D3F84FF0FF30EAE72E2E2F4D6964646C97
:105A90006577617265732F54686972645F506172D3
:105AA00074792F4C7749502F7372632F636F72652F
:105AB0002F697076342F6970345F667261672E6368
:105AC00000000000636865636B20667261676D6546
:105AD0006E747320646F6E2774206F7665726C61CC
